:020000040800F2
:100000000000042079600008ED5C0008EF5C000847
:10001000F15C0008F35C0008F55C000800000000DB
:10002000000000000000000000000000F75C000875
:10003000F95C000800000000FB5C0008FD5C0008A3
:10004000C9600008C9600008C9600008C9600008EC
:10005000C9600008C9600008C9600008C9600008DC
:10006000C9600008C9600008C9600008C9600008CC
:10007000C9600008C9600008C9600008C9600008BC
:10008000C9600008C9600008C9600008C9600008AC
:10009000C9600008C9600008C9600008C96000089C
:1000A000C9600008C9600008C9600008C96000088C
:1000B000C9600008C9600008C9600008C96000087C
:1000C000C9600008C9600008C9600008C96000086C
:1000D000C9600008C9600008C9600008C96000085C
:1000E000C9600008C9600008C9600008C96000084C
:1000F000C9600008C9600008C9600008C96000083C
:1001000000000000C9600008C9600008C96000085C
:100110000000000000000000C9600008C96000087D
:10012000C9600008C9600008C9600008C96000080B
:10013000C9600008C9600008C9600008C9600008FB
:10014000C9600008C9600008C9600008055D0008B2
:10015000C9600008C9600008C9600008C9600008DB
:10016000C9600008C960000800000000000000002D
:10017000000000000000000000000000000000007F
:10018000C9600008C960000800000000000000000D
:10019000C9600008C96000080000000000000000FD
:1001A000000000000000000000000000000000004F
:1001B000C96000080000000000000000C9600008DD
:0401C000C96000080A
:1001C40010B5054C237833B9044B13B10448AFF38D
:1001D40000800123237010BD900000200000000067
:1001E400CC6200080C4B43B10C480D4910B5AFF379
:1001F40000800C48036823B910BD0A48036833B96A
:100204007047094B002BF7D0BDE810401847064B48
:10021400002BF5D0184700BF00000000CC62000896
:1002240094000020900000200000000053B94AB957
:10023400002908BF00281CBF4FF0FF314FF0FF30EA
:1002440000F07AB9ADF1080C6DE904CE00F006F8BF
:10025400DDF804E0DDE9022304B070472DE9F0473E
:100264008C460D460446089E002B51D18A421746FF
:100274006DD9B2FA82FEBEF1000F0BD0CEF1200C84
:1002840001FA0EF520FA0CFC02FA0EF74CEA050C02
:1002940000FA0EF44FEA174A250CBCFBFAF81FFAD1
:1002A40087F90AFB18CC45EA0C4508FB09F3AB4275
:1002B4000AD9ED1908F1FF3280F02381AB4240F2F4
:1002C4002081A8F102083D44ED1AA4B2B5FBFAF06E
:1002D4000AFB105544EA054400FB09F9A14509D974
:1002E400E41900F1FF3380F00A81A14540F207814F
:1002F40002383C44A4EB090440EA08400021002EE3
:1003040061D024FA0EF4002334607360BDE8F087F2
:100314008B4207D9002E54D0002186E821000846DC
:10032400BDE8F087B3FA83F1002940F08E80AB4238
:1003340002D3824200F2FA80841A65EB030501209D
:10034400AC46002E3FD086E81010BDE8F08712B905
:100354000127B7FBF2F7B7FA87FEBEF1000F34D1DD
:10036400EB1B3A0C1FFA87FC0121B3FBF2F8250CB6
:1003740002FB183345EA03450CFB08F3AB4207D9EB
:10038400ED1908F1FF3002D2AB4200F2D180804671
:10039400ED1AA3B2B5FBF2F002FB105543EA054493
:1003A4000CFB00FCA44507D9E41900F1FF3302D289
:1003B400A44500F2B8801846A4EB0C0440EA0840B7
:1003C4009DE731463046BDE8F087CEF1200405FABA
:1003D4000EF307FA0EF720FA04F83A0C25FA04F49F
:1003E40048EA0308B4FBF2F14FEA184502FB114452
:1003F4001FFA87FC45EA044501FB0CF3AB4200FA03
:100404000EF409D9ED1901F1FF3080F08A80AB4276
:1004140040F2878002393D44EB1A1FFA88F5B3FB9A
:10042400F2F002FB103345EA034500FB0CF3AB4248
:1004340007D9ED1900F1FF386FD2AB426DD90238FC
:100444003D44EB1A40EA01418FE7C1F1200722FA4B
:1004540007F88B4005FA01F448EA030320FA07FE83
:100464004FEA134CFD404EEA040EB5FBFCF94FEA8B
:100474001E440CFB19551FFA83F844EA054509FB91
:1004840008F4AC4202FA01F200FA01FA08D9ED18B4
:1004940009F1FF3043D2AC4241D9A9F102091D440C
:1004A4002D1B1FFA8EFEB5FBFCF00CFB10554EEA1B
:1004B400054400FB08F8A04507D9E41800F1FF350E
:1004C40029D2A04527D902381C4440EA0940A4EBAC
:1004D4000804A0FB02894C45C6464D4615D312D0EC
:1004E40056B1BAEB0E0364EB050404FA07F7CB40EC
:1004F4001F43CC40376074600021BDE8F087184684
:10050400F8E69046E0E6C245EAD2B8EB020E69EBA3
:1005140003050138E4E72846D7E7404691E78146DA
:10052400BEE7014678E702383C4445E7084608E759
:10053400A8F102083D442BE7704700BF70B586B0B0
:10054400002300930F4B1A6B42F010021A631B6BCB
:1005540003F010030093009B0B4B53F820600196AB
:1005640001240294039402230493084D01A928460C
:1005740000F0F4F82246B1B2284600F0D9F906B0EA
:1005840070BD00BF00380240E46200080010024061
:1005940008B50022034B33F82010034800F0C8F9D3
:1005A40008BD00BFE46200080010024008B5034B18
:1005B40033F82010024800F0C1F908BDE4620008D5
:1005C4000010024010B504460E4B18784FF47A73AD
:1005D400B3FBF0F30C4A1068B0FBF3F000F0A8F89A
:1005E40068B90F2C01D9012010BD002221464FF01B
:1005F400FF3000F05DF8034B5C60002010BD01206B
:1006040010BD00BF000000202800002008B50B4BDF
:100614001A6842F400721A601A6842F480621A601E
:100624001A6842F480721A60032000F02FF8002048
:10063400FFF7C8FF05F052F9002008BD003C024056
:10064400034A1168034B1B780B441360704700BFC7
:10065400CC00002000000020014B1868704700BF48
:10066400CC00002038B50446FFF7F6FF0546B4F188
:10067400FF3F02D0044B1B781C44FFF7EDFF401BE7
:100684008442FAD838BD00BF00000020074AD3686E
:1006940023F4E0631B041B0C000200F4E060184325
:1006A40040F0BF6040F40030D060704700ED00E0DF
:1006B40030B4164BDB68C3F30223C3F10704042CE4
:1006C40028BF04241D1D062D17D9033B012505FA57
:1006D40004F4013C2140994005FA03F3013B134023
:1006E400194300280BDB0901C9B200F1604000F591
:1006F400614080F8001330BC70470023E6E700F047
:100704000F000901C9B2024B1954F4E700ED00E0EF
:1007140014ED00E0002808DB420900F01F0001236B
:1007240003FA00F0014B43F82200704700E100E0B7
:100734000138B0F1807F0AD2064B5860F021064A96
:1007440082F823100020986007221A607047012065
:10075400704700BF10E000E000ED00E000230F2B25
:1007640000F2DA80F0B583B09EE085684FEA430E6C
:10077400032707FA0EF725EA0705CE6806FA0EF6F0
:1007840035438560456825EA02024D68C5F30015C6
:100794009D402A434260C6685F000322BA40D243A8
:1007A40016408D68BD402E43C6604D68022D00F092
:1007B4008D80122D00F08A8005682A404D6805F06E
:1007C4000305BD402A4302604A6812F0805F68D086
:1007D40000220192514A556C45F480455564526C8F
:1007E40002F480420192019A9A08961C4C4D55F8E5
:1007F400265003F003064FEA860E0F2606FA0EF67D
:1008040025EA0605474FB84278D0474EB04277D024
:1008140006F58066B04275D006F58066B04273D0A6
:1008240006F58066B04271D006F58066B0426FD09E
:1008340006F58066B0425FD0072606FA0EF6354309
:100844000232374E46F82250384A1568E24305EA28
:1008540002064F6817F4803F01D044EA0506334D81
:100864002E606D6802EA05064F6817F4003F01D058
:1008740044EA05062D4D6E60AD6802EA05064F6830
:1008840017F4801F01D044EA0506284DAE60ED68D8
:100894002A404E6816F4001F01D044EA0502234C96
:1008A400E26001330F2B35D801229A400C681440C2
:1008B400A242F6D14D686E1E012E7FF656AF112D61
:1008C4003FF453AF122D7FF466AF4EE74FEAD30CDB
:1008D4000CF1080C50F82C5003F0070E4FEA8E0E62
:1008E4000F2606FA0EF625EA06050E6906FA0EF636
:1008F400354340F82C505FE706269EE700269CE728
:1009040001269AE7022698E7032696E7042694E749
:10091400052692E703B0F0BD704700BF00380240DF
:10092400003801400000024000040240003C014045
:1009340012B909048161704781617047436931EAE2
:10094400030301D08161704709048161704700008D
:10095400F8B50668346A04F00F07C4F34343C4F3DC
:100964000A14022B2ED16CB307EB8702D300034485
:10097400596C39B305462246304603F06FF9BA0084
:100984003A44D3002B445A6C22445A64DA6C22440D
:10099400DA6406EB4713D3F810150B4A0A408AB100
:1009A400D3F8002522F0804242F00042C3F800252B
:1009B400BB00D919CA002A4492F8503083F00103CD
:1009C40082F85030F8BD00BF0000F81FF0B585B0C4
:1009D4009DF828509DF82C60BDF8307090F8B8420E
:1009E400012C41D0012480F8B8424FEA810E8E4494
:1009F4004FEACE0404444FF0000E84F83DE084F83E
:100A04003830A4F8407084F8391084F83F6002F05C
:100A14007F0E84F83AE012F0800F1BD101EB810EB7
:100A24004FEACE0404444FF0000E84F83BE0044641
:100A340001EB810E4FEACE00204480F83C5002972F
:100A440001960095206803F011FA002384F8B83267
:100A540005B0F0BD01EB810E4FEACE0404444FF023
:100A6400010E84F83BE0E2E70220F1E790F8B832A7
:100A7400012B01D10220704710B50446012380F8F0
:100A8400B832006803F079FA002084F8B80210BD87
:100A9400002845D0F0B58BB00646046890F8B9320A
:100AA400002B38D0032386F8B932E36B13F4807F2C
:100AB40001D100233361306803F077F8344654F8E9
:100AC40010EB6D460FCC0FC50FCC0FC594E8030097
:100AD40085E80300371D97E80E00704603F01AF806
:100AE4000121306803F067F8344654F810EB6D4682
:100AF4000FCC0FC50FCC0FC594E8030085E80300A5
:100B040097E80E00704603F027F9012386F8B932FE
:100B140000200BB0F0BD80F8B83205F07BF9C1E7D6
:100B240001207047F8B59DF81870BDF820608D005D
:100B34000D44EC00044484F83B2084F83F308FB922
:100B44008D000D44EC000444032584F842509DF8C4
:100B5400245084F83D50032B00F29680DFE803F024
:100B64000A8D2F5E01EB8105EC000444022584F814
:100B74004250F0E7012F40F08780002A40F0848043
:100B840036B901EB8102D3000344012283F85120DA
:100B940001EB8102D300034493F851303BB901EBDC
:100BA4008102D3000344002283F842206CE001EB6D
:100BB4008102D3000344022283F8422064E0B2B9E4
:100BC40001EB8102D300034493F851303BB901EBAC
:100BD4008102D3000344002283F8422054E001EB55
:100BE4008102D3000344022283F842204CE001EB4B
:100BF4008102D300034493F850303BB901EB8102E6
:100C0400D3000344002283F842203DE001EB81023B
:100C1400D3000344022283F8422035E0B2B901EB49
:100C24008102D300034493F851303BB901EB8102B4
:100C3400D3000344002283F8422025E001EB810223
:100C4400D3000344022283F842201DE001EB810219
:100C5400D300034493F850303BB901EB8102D30035
:100C64000344002283F842200EE001EB8102D3000A
:100C74000344022283F8422006E001EB8102D30000
:100C84000344002283F842208A005418E3000344FA
:100C9400079C5C649E64002483F85C40DC6483F8F5
:100CA400391083F85D401144CB0003F13801027C14
:100CB4000144006803F0DCF9F8BD30B583B00546A3
:100CC4000468D4F840340193D4F840340093009B72
:100CD40023F02E030093019B13F0020F07D0019B16
:100CE40013F0010F25D1009B43F002030093019BF5
:100CF40013F0080F10D0009B43F008030093019BEE
:100D040013F0040F2DD0AB69022B15D0EB68012B27
:100D140022D0284605F0D3F8019B13F0200F03D00E
:100D2400009B43F020030093009BC4F8403403B0BD
:100D340030BD05F0B7F8D6E7019B03F4C023B3F543
:100D4400802F04D00121286802F0A4FFE1E70221EA
:100D5400286802F09FFFDCE74EF66022C4F8042402
:100D6400D7E7284605F0B1F8D6E7F8B506460D46AC
:100D7400076807EB411707F5A064A36813F0040F95
:100D840040D00423A360E36843F00203E360A36854
:100D940013F4007F40F08280A36813F0010F00F089
:100DA400B08033694BB1AA002A44D30033449A6C0F
:100DB4002169C1F31201521ADA64AA002A44D30049
:100DC4003344012283F85D2000219965A26093F8E1
:100DD4003F30002B6ED0022B6CD0032B7FD0012B25
:100DE40072D1AA002A44D3003344012283F85C2040
:100DF40093F85010514083F850102946304605F0BE
:100E04005DF861E0A36813F4807F06D1A36813F052
:100E1400200F14D02023A360B9E74FF48073A3609C
:100E240001EB8102D3000344072283F85D20E368C9
:100E340043F00203E360006803F09FF8A7E7A368A8
:100E440013F0080F17D1A36813F4806F9FD0E368E1
:100E540043F00203E360006803F08FF81023A360FB
:100E640005EB8502D3003344082283F85D204FF458
:100E74008063A3608BE7E36843F00203E36001EB64
:100E84008102D3000344052283F85D201023A3606C
:100E94000823A360006803F070F878E7E36843F080
:100EA4000203E3602946306803F067F84FF40073E7
:100EB400A360F8BDE36843F00203E36029463068A9
:100EC40003F05BF81023A360AB005919CA00324445
:100ED40092F8503083F0010382F85030F8BDD7F80F
:100EE400003543F00053C7F8003505EB8502D30005
:100EF4003344012283F85C202946304604F0DEFFA7
:100F0400E2E7A36813F0020F6FD0E36823F0020353
:100F1400E36005EB8502D300334493F85D30012B85
:100F240014D0052B26D0062B2CD0082B2AD0032B2B
:100F34004BD0072B11D1AA002A44D30033449A6D15
:100F440001329A65042283F85C2006E005EB8502F1
:100F5400D3003344012283F85C200223A36005EB11
:100F64008502D300334493F85C202946304604F0CC
:100F7400A5FFF8BD05EB8502D3003344052283F8B1
:100F84005C20EAE7AA002A44D30033449A6D013274
:100F94009A65032A11D9AA002A44D30033440022B3
:100FA4009A65042283F85C20D7F8003523F0804347
:100FB40043F00043C7F80035CFE705EB8502D300C3
:100FC4003344022283F85C20EEE705EB8502D3006C
:100FD4003344022283F85C20D7F8003523F08043A1
:100FE40043F00043C7F80035B7E7A36813F0800F58
:100FF40019D1A36813F0100F14D005EB8502D300A8
:10100400334493F83F30032B25D00BB1022B07D187
:1010140005EB8502D300334400229A6533694BB350
:101024001023A360F8BDE36843F00203E360AB0060
:101034005919CA003244916D013191652B44DA008B
:101044003244062382F85D302946306802F095FF69
:101054008023A360F8BD05EB8502D300334400224E
:101064009A65E36843F00203E3602946306802F0BE
:1010740084FFD5E705EB8502D3003344032283F8CC
:101084005D20E36843F00203E3602946306802F020
:1010940074FFC5E7F8B5036803EB411303F5A064D7
:1010A400A26812F0040F11D10E460546A26812F090
:1010B400200F26D02023A36001EB8102D3001A461F
:1010C400034493F83D30012B07D0F8BD0423A360FB
:1010D400E36843F00203E360F8BD8B00024400219F
:1010E40082F83D103344DA000244022382F85C3073
:1010F400E36843F00203E3603146006802F03DFF19
:10110400F8BDA26812F0400F34D1A26812F4007F37
:101114004AD1A26812F0010F51D1A26812F0080F4F
:1011240062D1A26812F0100F6FD08A000A44D30073
:10113400034400229A65032283F85D2093F83D302E
:101144006BB901EB8102D300034493F83C3033B90B
:1011540001EB8102D3000344012283F83D20E368BC
:1011640043F00203E3603146286802F006FF1023CF
:10117400A360F8BD8B005918CA000244042182F808
:101184005D10012182F83D103344DA00024400234B
:101194009365E36843F00203E3603146006802F0BC
:1011A400ECFE4023A360F8BDE36843F00203E36070
:1011B400006802F0E2FE4FF40073A360F8BD8F00F4
:1011C4007A18D300034400229A65E36843F00203CB
:1011D400E360006802F0D1FE0123A360B919C800DE
:1011E400284480F85D30F8BD0823A360E36843F029
:1011F4000203E360006802F0C0FE06EB8601C8004B
:101204002844052380F85D30F8BDA26812F0800FF1
:101214003AD1A26812F4806F47D1A26812F0020F8B
:101224003FF453AFE26822F00202E26001EB810175
:10123400CA001146024492F85D20012A49D0032ACB
:1012440068D0042A6ED0052A74D0062A01D0082A50
:101254004AD1B1003144CA002A44916D01319165EB
:1012640003296FD9B1003144CA002A440021916591
:10127400042182F85C10D3F8002522F0804242F069
:101284000042C3F800252FE0E36843F00203E36063
:10129400006802F072FE06EB8601CB002B440622A6
:1012A40083F85D208023A360F8BDE36843F0020364
:1012B400E360006802F061FE1023A3604FF48063D2
:1012C400A36006EB8601CB002B44082283F85D2043
:1012D400F8BD0B460344012283F85C2093F83F30A9
:1012E400023BDBB293420CD90223A36006EB8602D5
:1012F400D3002B4493F85C203146284604F0DEFDED
:10130400E3E60B46034493F8512082F0010283F88C
:101314005120E9E706EB8602D3000344022283F856
:101324005C20E1E706EB8602D3000344022283F843
:101334005C20D9E706EB8602D3000344052283F838
:101344005C20D1E706EB8601CA002A44022182F818
:101354005C1090E7F8B504460568284602F096FC50
:10136400012800D0F8BD206802F08CFC0028F9D0D8
:10137400206802F087FC10F4001F03D023684FF4A8
:1013840000125A61206802F07DFC10F4801F03D023
:1013940023684FF480125A61206802F073FC10F045
:1013A400806F03D023684FF080625A61206802F096
:1013B40069FC10F0020F02D0236802225A612068EF
:1013C40002F060FC10F0005F08D023684FF0005278
:1013D4005A61D5F8403413F0010F28D0206802F088
:1013E40051FC10F0807F2AD1206802F04BFC10F0F1
:1013F400080F28D1206802F045FC10F0007F29D1A5
:10140400206802F03FFC10F0100F49D00123002B9C
:10141400A8D02268936923F0100393612046FFF754
:1014240097FA2268936943F0100393619AE7204680
:1014340004F03EFD0121206802F02CFCCEE720469A
:10144400FFF73BFCD0E7204604F026FD2368082282
:101454005A61CFE7206802F08BFD0746002604E0BE
:10146400F1B22046FFF716FE0136A3689E4212D25F
:1014740006F00F0327FA03F313F0010FF4D005EB82
:101484004613D3F8003513F4004FE9D0F1B22046E7
:10149400FFF76BFCE8E723684FF000725A61AFE78F
:1014A4000023B4E738B590F8B832012B01D10220FB
:1014B40038BD0446012580F8B852006802F06FFB7D
:1014C4002946206802F025FC002084F8B80238BDC3
:1014D40090F8B832012B01D10220704710B50446B0
:1014E400012380F8B832006802F06EFE002084F810
:1014F400B80210BD08B5006802F0ECFB08BD01EBB2
:101504008101CB00184490F85C00704701EB810125
:10151400CB001844C06C704708B5006802F0A1FC09
:1015240008BD08B5006802F091FC08BD002800F071
:10153400C880F8B5044690F83D30002B75D02423BC
:1015440084F83D302268136823F001031360226895
:10155400136843F4004313602268136823F40043C0
:10156400136000F0C3FD6268584B9A4262D8584B2E
:1015740098428CBF00230123002B40F0A480554BDC
:10158400A3FB00239A0C21684B6823F03F03134309
:101594004B602568296A21F03F0166684B4B9E42E7
:1015A4004ED8531C0B432B622268D16921F44F415E
:1015B40021F0FF016368454DAB424BD801385B0015
:1015C400B0FBF3F30133C3F30B03042B38BF042341
:1015D4000B43D36121680B6823F0C003E269206ADE
:1015E400024313430B6021688B6823F4034323F005
:1015F400FF032269E068024313438B602168CB68D0
:1016040023F0FF036269A06902431343CB6022689D
:10161400136843F00103136000202064202384F83E
:101624003D30206384F83E00F8BD80F83C3004F07F
:1016340071F984E7284B98428CBF002301239BE770
:101644004FF4967303FB02F3244AA2FB03239B0982
:101654000133A7E7A668BEB9451E03EB4307B5FBF4
:10166400F7F50135C5F30B05B5FA85F56D0935BBFD
:10167400C6B9013803EB4303B0FBF3F30133C3F3FF
:101684000B0343F40043A3E7451E03EB830707EB77
:101694008707B5FBF7F50135C5F30B05B5FA85F5F5
:1016A4006D09E4E7013803EB830303EB8303B0FB29
:1016B400F3F30133C3F30B0343F4404388E70123FB
:1016C40086E7012070470120F8BD00BFA086010015
:1016D4007F841E0083DE1B43FF083D00D34D621050
:1016E400002800F0D68070B5044690F84130002BF5
:1016F4005ED0022284F841202168CB6923F47B6305
:1017040023F00F03CB6123681A626369934274D098
:10171400E368002B53D11025A368202B00D86D005B
:1017240023685D4A93424CD002F58062934248D0CC
:10173400022000F059FE2369B3F5007F45D0B0FBC9
:10174400F5F000EB800043006269B3FBF2F305336C
:10175400524AA2FB0323DB0803F001029B1A5B0835
:101764001202991EFD294AD82168206902431343B5
:101774000B622168CB6923F47B6323F00F03626857
:10178400A0680243E0680243A0690243134343F4A0
:101794000063CB61A368302B37D0B02B35D0236ADC
:1017A400012B38D000206064012384F8413070BDDF
:1017B40080F840303A4B436304F026F999E720253A
:1017C400AAE7012000F010FEB5E7E36853B1AD00CD
:1017D400B0FBF5F000EB800043006269B3FBF2F369
:1017E4000533B5E7ED00B0FBF5F000EB80004300F6
:1017F4006269B3FBF2F30533AAE70022B1E7636C35
:1018040043F010036364012070BD2268D36943F47C
:101814008053D361C3E7234B636322681E4B9A4210
:101824002BD04FF04022D36923F47B6323F00F03C2
:10183400D3612268184B9A4221D04FF040230222F0
:101844001A622268144B9A421CD04FF04021CA6994
:1018540092B26368B3F5007F16D0C3B94FF48070B9
:10186400A568E668238B33439BB22B439BB20343A7
:10187400134343F40063CB6194E70B4AD3E7A3F526
:101884008063DCE70849E2E74FF48070E8E7002072
:10189400E6E70120704700BF00380040CDCCCCCC37
:1018A40027190008351B000800340040704708B5AC
:1018B4000368426A1288DA60436A02334362438DE2
:1018C4009BB2013B9BB24385438D9BB203B108BDE0
:1018D4000268536823F0A0035360012380F8413069
:1018E400FFF7E4FFF3E7704708B5C36A0268D268FC
:1018F4001A80C36A0233C362438E9BB2013B9BB21C
:101904004386438E9BB203B108BD0268536823F03B
:1019140060035360012380F84130FFF7E4FFF3E7ED
:10192400704710B584B0044602689368039390F836
:101934004130DBB2042B06D094F84130DBB2032BE8
:101944002CD004B010BD039B13F0010F03D05368D7
:1019540013F0400F1FD1039B13F0400FECD023680A
:101964005A6812F0200FE7D05A6822F060025A60D9
:10197400002301932368DA6801929B680193019B19
:10198400012384F84130636C43F00203636420460E
:10199400FFF7C6FFD0E7FFF7A7FFDCE7039B13F0D1
:1019A400020F04D023685B6813F0800F1DD1039BE2
:1019B40013F0080FC5D023685A6812F0200FC0D066
:1019C4005A6822F0A0025A600023029323689B689D
:1019D4000293029B012384F84130636C43F00403B7
:1019E40063642046FFF79CFFABE72046FFF75FFFE9
:1019F400DDE7704708B50268436A991C41621B8899
:101A0400D360438D9BB2013B9BB24385438D9BB214
:101A14003BB90268536823F0A0035360438E9BB222
:101A240003B108BD012380F84130FFF7E2FFF8E776
:101A340008B5C36A9A1CC2620168144A914219D05B
:101A44004FF04022D2681A80438E9BB2013B9BB276
:101A54004386438E9BB263B902680C4B9A420CD006
:101A64004FF04022536823F060035360438D9BB2D0
:101A74002BB108BDA2F58062E4E7054AF2E7012331
:101A840080F84130FFF7B5FFF3E700BF00380040AE
:101A94000034004008B50268144B9A421CD04FF041
:101AA4004022436A991C41621B88D360438D9BB2D8
:101AB400013B9BB24385438D9BB263B902680B4BD8
:101AC4009A420BD04FF04022536823F0A003536096
:101AD400438E9BB223B108BD054AE2E7044AF3E70B
:101AE400012380F84130FFF784FFF4E70038004019
:101AF4000034004008B5C36A9A1CC2620268D26806
:101B04001A80438E9BB2013B9BB24386438E9BB2A9
:101B14003BB90268536823F060035360438D9BB262
:101B240003B108BD012380F84130FFF762FFF8E7F5
:101B340010B586B0044603689A680592704A9342C9
:101B44006FD04FF04022916804915B68039353680F
:101B540002936368B3F5007F01D0002B70D1059B1D
:101B640013F0020F03D0039B13F0800F5CD1049B8E
:101B740013F0010F03D0029B13F0400F58D1049BC4
:101B840013F0400F24D0029B13F0200F20D02268C2
:101B94005B4B9A4250D04FF04022536823F06003CD
:101BA40053602268536823F0A0035360002300931A
:101BB4002368DA6800929B680093009B012384F8F1
:101BC4004130636C43F0020363642046FFF7A8FED0
:101BD400059B13F0080F22D0039B13F0200F1ED097
:101BE4002268536823F0A00353602268444B9A424E
:101BF40024D04FF04022536823F060035360002345
:101C0400019323689B680193019B012384F841306D
:101C1400636C43F0040363642046FFF781FE06B05F
:101C240010BDA2F580628EE72046FFF7E3FE9EE733
:101C34002046FFF7FDFEA2E7324AAEE7314ADAE773
:101C4400049B13F0020F03D0029B13F0800F4AD1C0
:101C5400059B13F0010F03D0039B13F0400F46D1F3
:101C6400059B13F0400F1CD0039B13F0200F18D0DA
:101C74002268536823F0600353602268204B9A4221
:101C840039D04FF04022536823F0A003536001235E
:101C940084F84130636C43F0020363642046FFF729
:101CA4003FFE049B13F0080FB9D0029B13F0200FE2
:101CB400B5D02268124B9A421FD04FF0402253688D
:101CC40023F0A00353602268536823F06003536039
:101CD400012384F84130636C43F0040363642046B9
:101CE400FFF71EFE9BE72046FFF7D4FEB0E7204631
:101CF400FFF700FFB4E7034AC5E7024ADFE700BF86
:101D040000380040003400402DE9F04105460F46FC
:101D140016469846069C2B689B683B4214BF0123D9
:101D24000023B34214D0B4F1FF3FF4D0FEF794FC87
:101D3400A0EB0800844201D3002CECD1042385F8E5
:101D440041306B6C43F001036B640120BDE8F0810A
:101D54000020BDE8F08181647047000030B583B095
:101D64000446FEF779FC002C4ED0054694F8413029
:101D7400002B3ED021680B6823F4F853A268013A83
:101D840043EA02230B60A36C00932B46002220211C
:101D94002046FFF7B9FF014628BB2068036823F0FB
:101DA4007F4323F0D0036568E26842EA0562E5698F
:101DB4002A43256A2A431343036020684268134B6D
:101DC40013402569626942EA0542A5692A4313431F
:101DD40043602268136843F00103136000236364C3
:101DE400012384F84130002384F84030084603B0CE
:101DF40030BD84F84030204603F074FE41F288314F
:101E04002046FFF7A8FFB5E70121EFE7FEF8E0FF62
:101E140070B588B00C46164608B300230293204DD3
:101E24002A6B42F004022A632A6B02F00402029233
:101E3400029A4FF400720392022204920322069241
:101E44000593079303A91748FEF788FCAB6823F0B2
:101E5400784344EAC6041C43AC6008B070BD002358
:101E640001930F4D2A6B42F001022A632A6B02F0A0
:101E740001020192019A4FF48072039202220492A9
:101E8400032206920593079303A90748FEF766FC0D
:101E9400AB6823F0EC6334431C43AC60DDE700BF64
:101EA400003802400008024000000240F8B5314BFF
:101EB4009B6803F00C03042B59D0082B01D02E4847
:101EC400F8BD2C4B5A6802F03F025B6813F4800F94
:101ED4002AD0284B5B68C3F388131E4600275C0195
:101EE4000025E41A65EB0705A90141EA9461A00104
:101EF400001B61EB0501CB0043EA5073C400A01939
:101F040043EB07014B0243EAD053440220461946EF
:101F14000023FEF78BF9174B5B68C3F301430133CE
:101F24005B00B0FBF3F0F8BD124B5B68C3F388139E
:101F34001E4600275C010025E41A65EB0705A9018C
:101F440041EA9461A001001B61EB0501CB0043EA67
:101F54005073C400A01943EB07018B0243EA90536A
:101F64008402204619460023FEF760F9D3E70348AC
:101F7400F8BD00BF003802400024F40000127A00CB
:101F8400002800F09E8070B50446504B1B6803F097
:101F94000F038B4209D2CBB24C4A1370136803F07F
:101FA4000F03994201D0012070BD236813F0020F82
:101FB40017D013F0040F04D0454A936843F4E05358
:101FC4009360236813F0080F04D0414A936843F4E4
:101FD400604393603E4A936823F0F003A068034390
:101FE40093600D46236813F0010F32D06368012B10
:101FF40021D09A1E012A25D9354A126812F0020FFF
:1020040061D033498A6822F0030213438B60FEF7E0
:1020140023FB06462E4B9B6803F00C036268B3EB6C
:10202400820F16D0FEF718FB801B41F288339842CA
:10203400F0D9032070BD264A126812F4003FE0D1A3
:10204400012070BD224A126812F0007FD9D101200C
:1020540070BD1E4B1B6803F00F039D4209D2EAB208
:102064001A4B1A701B6803F00F039D4201D0012024
:1020740070BD236813F0040F06D0154A936823F447
:10208400E053E1680B439360236813F0080F07D013
:102094000F4A936823F46043216943EAC1039360C0
:1020A400FFF704FF0A4B9B68C3F30313094AD35C8D
:1020B400D840094B1860094B1868FEF783FA0020D2
:1020C40070BD01207047012070BD00BF003C02407C
:1020D400003802402063000828000020040000208B
:1020E400014B1868704700BF2800002008B5FFF7AF
:1020F400F7FF044B9B68C3F38223034AD35CD840A5
:1021040008BD00BF003802403063000808B5FFF77F
:10211400E7FF044B9B68C3F34233034AD35CD840C4
:1021240008BD00BF003802403063000870B582B0BB
:102134000446036813F0010F0DD0A54AD2F88C3081
:1021440023F0C06341690B43C2F88C304369002B10
:102154006FD0002600E00026236813F0020F0BD096
:102164009B4AD2F88C3023F0C053A1690B43C2F8C8
:102174008C30A36903B90126236813F0080F5AD1E0
:10218400236813F0040F03D094F83820914B1A609D
:10219400236813F0100F08D08D4AD2F8943023F43A
:1021A4004003616A0B43C2F89430236813F0200F94
:1021B4000DD0874AD2F8943023F00063A16A0B4310
:1021C400C2F89430A36AB3F1006F00F09B802368D7
:1021D40013F0400F08D07E4AD2F8943023F0805395
:1021E400216A0B43C2F89430002E40F08D8023689E
:1021F400802B00F08980236813F4807F08D0744A10
:10220400D2F88C3023F00043E16A0B43C2F88C30DF
:10221400236813F4007F00F0D8806D4AD2F88C3024
:1022240023F40043216B0B43C2F88C30002002B02E
:1022340070BD012690E700230193654B1A6C42F0B0
:1022440080521A641B6C03F080530193019B624A11
:10225400136843F480731360FEF7FEF905465E4B82
:102264001B6813F4807F06D1FEF7F6F9401B0228A1
:10227400F5D90320DBE7564B1B6F13F4407312D0E0
:10228400E26902F4407293420DD0514B1A6F22F46A
:102294004072524901200860002008601A671B6FD1
:1022A40013F0010F12D1E36903F44072B2F5407FD9
:1022B4001DD0474A936823F4F813936044490B6F85
:1022C400E269C2F30B0213430B6759E7FEF7C4F943
:1022D40005463F4B1B6F13F0020FE4D1FEF7BCF928
:1022E400401B41F288339842F3D903209FE73849D1
:1022F4008A6822F4F81223F0704323F440731343E2
:102304008B60DBE7012662E70022354B1A60FEF79B
:10231400A3F905462E4B1B6813F0006F06D0FEF799
:102324009BF9401B0228F5D9032080E7626B2D4BF3
:102334001A60236813F0010F01D06269A2B113F08F
:10234400020F01D0A2697AB113F0200F03D0A26A60
:10235400B2F1006F08D013F0400F12D0236A83B992
:10236400A36AB3F1006F0CD16368A26843EA8213D5
:10237400E26843EA0263226943EA0273144AC2F838
:102384008430236813F0800F0CD06368A26843EA9A
:102394008213E26843EA0263226943EA02730C4A45
:1023A400C2F8843001220E4B1A60FEF755F9054637
:1023B400074B1B6813F0006F7FF41DAFFEF74CF959
:1023C400401B0228F4D9032031E700202FE700BF87
:1023D40000380240E011474200700040400E47427E
:1023E40068004742D8104742012803D0022871D020
:1023F40000207047724BD3F88C3003F0C063B3F104
:10240400007F2ED00ED9B3F1806F43D0B3F1C06FEB
:1024140040F0CD806A4B5B6813F4800F00F0C980F4
:1024240068487047002B40F0C280654BD3F8843075
:1024340013F4800F17D0624BD3F8843003F03F03BA
:102444006148B0FBF3F35E4AD2F88400C0F388100D
:1024540000FB03F0D2F88430C3F30273B0FBF3F053
:10246400704759487047564B5B6813F4800F08D087
:10247400534BD3F8843003F03F035248B0FBF3F3DB
:10248400E1E74F4BD3F8843003F03F034F48B0FBF0
:10249400F3F3D8E74A4B5B6813F4800F12D0484B30
:1024A4005B6803F03F034748B0FBF3F3444A5068CA
:1024B400C0F3881000FB03F05368C3F30273B0FB4E
:1024C400F3F070473E4B5B6803F03F033F48B0FBBB
:1024D400F3F3EBE73A4BD3F88C3003F0C053B3F18A
:1024E400006F2BD00CD9B3F1805F40D0B3F1C05F43
:1024F40061D1334B5B6813F4800F5ED03148704771
:10250400002B58D12E4BD3F8843013F4800F17D0FE
:102514002B4BD3F8843003F03F032B48B0FBF3F389
:10252400274AD2F88400C0F3881000FB03F0D2F8E5
:102534008430C3F30273B0FBF3F070472248704752
:102544001F4B5B6813F4800F08D01D4BD3F8843005
:1025540003F03F031B48B0FBF3F3E1E7184BD3F858
:10256400843003F03F031948B0FBF3F3D8E7144B6E
:102574005B6813F4800F12D0114B5B6803F03F03C8
:102584001048B0FBF3F30E4A5068C0F3881000FB08
:1025940003F05368C3F30273B0FBF3F07047084BC6
:1025A4005B6803F03F030948B0FBF3F3EBE700205B
:1025B400704706487047002070470448704700BFC2
:1025C4000038024000127A000080BB000024F400AE
:1025D40070B582B00446036813F0010F3BD0A74BDB
:1025E4009B6803F00C03042B2CD0A44B9B6803F0D2
:1025F4000C03082B21D06368B3F5803F4FD0B3F5AB
:10260400A02F52D09D4B1A6822F480321A601A68A7
:1026140022F480221A606368002B50D0FEF71CF865
:102624000546964B1B6813F4003F14D1FEF714F8CB
:10263400401B6428F5D903208AE1904B5B6813F4AE
:10264400800FD8D08D4B1B6813F4003F03D0636810
:10265400002B00F07A81236813F0020F55D0874BCA
:102664009B6813F00C0F3ED0844B9B6803F00C0363
:10267400082B33D0E368002B68D00122804B1A600A
:10268400FDF7EAFF05467D4B1B6813F0020F54D19A
:10269400FDF7E2FF401B0228F5D9032058E1774AF1
:1026A400136843F480331360B5E7744B1A6842F43B
:1026B40080221A601A6842F480321A60ABE7FDF790
:1026C400CBFF05466D4B1B6813F4003FC3D0FDF7E9
:1026D400C3FF401B6428F5D9032039E1674B5B68CD
:1026E40013F4800FC6D1654B1B6813F0020F04D09E
:1026F400E368012B01D001202AE1604A136823F02A
:10270400F803216943EAC1031360236813F0080F37
:1027140040D0636963B301225A4B1A60FDF79CFFF2
:102724000546564B5B6F13F0020F33D1FDF794FF50
:10273400401B0228F5D903200AE1504A136823F00C
:10274400F803216943EAC1031360DEE700224C4B1E
:102754001A60FDF781FF0546484B1B6813F0020F12
:10276400D3D0FDF779FF401B0228F5D90320EFE011
:102774000022444B1A60FDF76FFF05463F4B5B6F29
:1027840013F0020F06D0FDF767FF401B0228F5D9AE
:102794000320DDE0236813F0040F78D0374B1B6C63
:1027A40013F0805F33D100230193344B1A6C42F051
:1027B40080521A641B6C03F080530193019B012522
:1027C400314B1B6813F4807F23D0A368012B34D0D2
:1027D400052B38D0294B1A6F22F001021A671A6FA1
:1027E40022F004021A67A368002B36D0FDF734FFE9
:1027F4000646224B1B6F13F0020F47D1FDF72CFF47
:10280400801B41F288339842F3D90320A0E00025CD
:10281400D6E71D4A136843F480731360FDF71CFF69
:102824000646194B1B6813F4807FCED1FDF714FFC5
:10283400801B0228F5D903208AE0104A136F43F065
:1028440001031367CFE70D4B1A6F42F004021A67B6
:102854001A6F42F001021A67C5E7FDF7FDFE06464E
:10286400064B1B6F13F0020F10D0FDF7F5FE801B13
:1028740041F288339842F3D9032069E000380240DA
:1028840000004742800E474200700040E5B9A3694A
:10289400002B5CD0304A926802F00C02082A59D00E
:1028A400022B17D000222D4B1A60FDF7D5FE0446EB
:1028B400294B1B6813F0007F45D0FDF7CDFE001BAC
:1028C4000228F5D9032043E0234A136C23F08053F4
:1028D4001364DCE70022214B1A60FDF7BDFE0546B8
:1028E4001D4B1B6813F0007F06D0FDF7B5FE401B9F
:1028F4000228F5D903202BE0E369226A1343626AB4
:1029040043EA8213A26A5208013A43EA0243E26AA2
:1029140043EA0263226B43EA02730F4A53600122C3
:102924000E4B1A60FDF798FE04460B4B1B6813F020
:10293400007F06D1FDF790FE001B0228F5D9032085
:1029440006E0002004E0002002E0012000E0002076
:1029540002B070BD0120FBE700380240600047422E
:1029640070B582B0044600230193006800F0E6FFCE
:10297400064610B1304602B070BD206800F0F1FF89
:1029840038B90123A364A36C012B0BD03546304620
:1029940014E00023A364206800F0D0FF0028F2D0E4
:1029A4000646E7E70021206800F0F2FF0028EDD09A
:1029B4004FF08056DEE7019B01330193019A4FF6F5
:1029C400FE739A4213D895B90021206800F0E0FF05
:1029D400F0B91249206800F0F3FF0546D0B9002190
:1029E400206800F067FEC30FE5D01D46E3E7019AB7
:1029F4004FF6FE739A4202D94FF08076BAE710F090
:102A0400804F02D100236364B4E701236364B1E718
:102A14000646AFE74FF08056ACE700BF000010C198
:102A24002DE9F04188B004460F46FDF715FE064631
:102A34000023009301930821206800F04FFF05460E
:102A440018B1284608B0BDE8F081216D090420685A
:102A540000F09EFF05460028F3D14FF0FF330293A8
:102A6400082303933023049302230593002306933E
:102A74000123079302A9206800F01EFF206800F0DC
:102A8400D0FF05460028DCD1804605E0FDF7E4FDD3
:102A9400801BB0F1FF3F43D02068426B40F22A43D1
:102AA4001A420AD1436B13F4001FEFD000F0DEFD8D
:102AB4004DF8280008F10108E8E7436B13F0080F0C
:102AC40002D008258563BCE7436B13F0020F02D0E4
:102AD40002258563B5E7436B13F0200F02D0202550
:102AE4008563AEE740F23A538363019A130203F419
:102AF4007F0343EA0263110A01F47F410B4343EA73
:102B040012633B60009A130203F47F0343EA0263F7
:102B1400110A01F47F410B4343EA12637B6090E79F
:102B24004FF000458DE710B582B0044600210091B6
:102B34000191006800F0BEFD10F0007F04D04FF456
:102B44000063184602B010BD69462046FFF768FFCF
:102B540003460028F5D1019B13F4802F02D14FF0D6
:102B64008063EEE7216D0904206800F011FF03463D
:102B74000028E6D10221206800F03BFF0346E0E78D
:102B840010B582B00446002100910191006800F064
:102B940091FD10F0007F04D04FF40063184602B09A
:102BA40010BD69462046FFF73BFF03460028F5D1D8
:102BB400019B13F4803F02D14FF08063EEE7216D57
:102BC4000904206800F0E4FE03460028E6D1002151
:102BD400206800F00EFF0346E0E7000010B4436EE7
:102BE4009B0F0B70436EC3F383634B7090F8673095
:102BF40003F003038B7090F86630CB7090F8653067
:102C04000B7190F864304B71836E1B0DCB80B0F860
:102C14006A3003F00F030B72836EC3F3C0334B723D
:102C2400836EC3F380338B72836EC3F34033CB72F2
:102C3400836EC3F300330B7300234B73436C002B7D
:102C440040F08880826E40F6FC7303EA8203C26E11
:102C540043EA92730B61C36EC3F3C2630B7590F8BE
:102C64006F3003F007034B75C36EC3F342538B7588
:102C7400C36EC3F38243CB75C36EC3F3C2330B7607
:102C84000B69013343650A7E02F00702023203FA3C
:102C940002F242650B7A03F00F040123A34083651B
:102CA4005B0A03FB02F3C3654FF400730366C36E50
:102CB400C3F380334B76C36EC3F3C6138B76C36EF4
:102CC40003F07F03CB76036FDB0F0B77036FC3F344
:102CD40041734B77036FC3F382638B77036FC3F343
:102CE4008353CB77036FC3F3405381F82030002321
:102CF40081F82130B0F8722002F0010281F822201C
:102D0400026FC2F3C03281F82320026FC2F3803213
:102D140081F82420026FC2F3403281F82520026F2B
:102D2400C2F3003281F82620026FC2F3812281F8B7
:102D34002720026FC2F3012281F82820026FC2F318
:102D4400460281F82920012281F82A2018465DF8DC
:102D5400044B7047012B0BD003680E4A9A63836BB4
:102D640043F080538363012380F834301846EEE740
:102D7400836E1B0403F47C13B0F86E2013430B61C1
:102D84000B6901339B024365C3654FF4007383658C
:102D940003668CE7FF05400070B590B0044601233C
:102DA400ADF81230006800F06CFC20B94FF080657B
:102DB400284610B070BD636C032B1AD0206800F055
:102DC40048FE05460028F3D10021206800F072FC7B
:102DD40060670421206800F06DFCA067082120686A
:102DE40000F068FCE0670C21206800F063FCC4F884
:102DF4008000636C032B07D00DF11201206800F0F2
:102E040052FE05460028D3D1636C032B1DD0BDF8B8
:102E1400121021650904206800F030FE05460028E0
:102E2400C6D10021206800F045FC606604212068BA
:102E340000F040FCA0660821206800F03BFCE0663E
:102E44000C21206800F036FC20670421206800F083
:102E540031FC000DE06405A92046FFF7BFFE10B168
:102E64004FF08055A4E7226D12040023206800F07F
:102E74004DFD054600289BD1234653F8106B93E87B
:102E840007008DE80700043494E80E00304600F093
:102E9400D1FB8DE770B58AB00546002304930593F2
:102EA400069307930893762309930AAB13E9070063
:102EB4008DE8070004AB0ECB286800F0BBFB18B10B
:102EC400012420460AB070BD0446104E002333602E
:102ED400286800F0CEFB012333602846FFF740FD4D
:102EE400034630B1012485F83440AA6B1343AB6325
:102EF400E7E72846FFF750FF03460028E1D0012406
:102F040085F83440AA6B1343AB63DAE7A08025420B
:102F1400C0B110B5044690F834307BB1032384F873
:102F240034302046FFF7B6FF034670B90022A2638F
:102F34002263012284F83420184610BD037702F07E
:102F440047FEEBE70123184670470123F4E700002E
:102F540030B58BB004460D46032380F83430436CFF
:102F6400032B25D0B1F5805F11D0B1F5006F13D0DC
:102F7400C1B1836B43F000638363A36BEBB123683C
:102F84001B4A9A63012084F834000BB030BD836B74
:102F940043F080538363F0E7FFF7C5FDA36B184349
:102FA400A063EAE7FFF7ECFDA36B1843A063E4E733
:102FB400836B43F080538363DFE763680493A36800
:102FC4000593E3680693079563690893A3690993D6
:102FD4000AAB13E907008DE8070004AB0ECB2068A9
:102FE40000F028FB012384F834300020CDE700BF33
:102FF400FF05400028B370B5044615460E4690F808
:103004004930CBB104F10801206800F0DBF9A26873
:103014003146206800F016FA236BA26829466068DE
:1030240000F03CFA2268A16852F8213043F0010311
:1030340042F82130002070BD80F8483002F050FE84
:10304400E0E7012070470000F8B504460268136900
:1030540023F44053C1680B4313618368026913432B
:1030640042691343C26913430168CA6822F41642D1
:1030740022F00C021343CB600268536923F44073BB
:1030840081690B435361C369B3F5004F34D00368BE
:10309400604A934200F0928002F58062934200F00D
:1030A4008D80FFF723F825680021061841EB0107FE
:1030B40036184F41FB0043EA5673F20016461F468A
:1030C40063689A009B0F80197941FDF7AFF8524C61
:1030D400A4FB00325109642202FB110213013233B2
:1030E400A4FB03235B0903F0F00202EB011203F0DB
:1030F4000F031344AB60F8BD0368464A934230D0D3
:1031040002F5806293422CD0FEF7F0FF256800217F
:10311400061841EB010736184F41FB0043EA56738A
:10312400F20016461F466268002392185B4180191C
:103134007941FDF77BF8384CA4FB00325109642235
:1031440002FB1102D3003233A4FB03235B095A00B0
:1031540002F4F87202EB011203F007031344AB60AC
:10316400F8BDFEF7D3FF25680021061841EB0107DF
:1031740036184F41FB0043EA5673F20016461F46C9
:103184006268002392185B4180197941FDF74EF87B
:10319400214CA4FB00325109642202FB1102D3002A
:1031A4003233A4FB03235B095A0002F4F87202EBE6
:1031B400011203F007031344AB60F8BDFEF7A6FF4A
:1031C40025680021061841EB010736184F41FB0022
:1031D40043EA5673F20016461F4663689A009B0F33
:1031E40080197941FDF722F80B4CA4FB00325109F8
:1031F400642202FB110213013233A4FB03235B0993
:1032040003F0F00202EB011203F00F031344AB606E
:10321400F8BD00BF001001401F85EB512DE9F041BE
:1032240005460F4616469846069C2B681B6837EAE7
:1032340003030CBF01230023B3421ED1B4F1FF3FAB
:10324400F3D02CB1FDF708FAA0EB08008442ECD2CD
:103254002A68D36823F4D073D3602A68536923F0AF
:1032640001035361202385F8393085F83A3000236F
:1032740085F838300320BDE8F0810020BDE8F081F6
:1032840058B310B5044690F839300BB3242384F8AE
:1032940039302268D36823F40053D3602046FFF703
:1032A400D3FE2268136923F490431361226853699F
:1032B40023F02A0353612268D36843F40053D36094
:1032C4000020E063202384F8393084F83A3010BDBC
:1032D40080F8383002F0CCFCD8E7012070472DE9A3
:1032E400F04383B01E4690F83930DBB2202B04D073
:1032F4000223184603B0BDE8F08304460D46904609
:10330400002956D0002A56D090F83830012B01D12C
:103314000223EEE7012380F838304FF00009C0F8AB
:103324003C90212380F83930FDF796F90746A4F83C
:103334002480A4F8268084F8389010E000963B4658
:10334400002280212046FFF769FF002835D122683A
:103354002B88C3F3080353602369CBB90235E38C8C
:103364009BB2BBB1E38C9BB2013B9BB2E384A368E9
:10337400B3F5805FE2D000963B46002280212046D0
:10338400FFF74CFFD8B923682A785A600135E6E77D
:103394000135E4E700963B46002240212046FFF732
:1033A4003DFF034608B10323A3E7202284F8392014
:1033B4009FE701239DE701239BE7032399E7032369
:1033C40097E7000070B40C6850F824301C4A1A4087
:1033D4004B688D682B43CE6833430E6933434E6983
:1033E4003343CE6933430E6A33434E6A33438E6AA2
:1033F4003343CE6A33430E6B33434E6B3343CE6B4E
:1034040033438E6B33431343082D0ED040F82430DE
:103414004B6BB3F5801F0BD00B681BB103688A6B31
:1034240013430360002070BC704743F04003EDE792
:103434000A68002AF0D0026813430360ECE700BF77
:103444008004C0FF30B4013250F8224004F04044FC
:103454000B684D6843EA05138D6843EA0523CD687C
:1034640043EA05430D69013D43EA05534D69023DB5
:1034740043EA05638D692B43234340F822300368F4
:1034840013F4801F07D0436823F470030A69013AD8
:1034940043EA02534360002030BC7047B3F5804FC9
:1034A40005D06FF0704340F822300020704730B4EC
:1034B40050F82230094C1C400B684D6843EA051350
:1034C4008D6843EA0523CD6843EA054389690B43C4
:1034D400234340F82230002030BC70470000F0CF76
:1034E4000B4B1B680B4AA2FB03235A0A41F2883395
:1034F40003FB02F35A1E43B1416B134611F0800FD4
:10350400F8D0C5238363002070474FF00040704714
:1035140028000020D34D6210154B1B68154AA2FBEE
:1035240003235A0A41F2883303FB02F35A1EDBB128
:10353400416B134611F0450FF8D011F4006FF5D12B
:10354400436B13F0040F03D00423836318467047BE
:10355400436B13F0010F03D1C5238363002070472D
:1035640001238363184670474FF00040704700BF43
:1035740028000020D34D6210114B1B68114AA2FB96
:1035840003235A0A41F2883303FB02F35A1E9BB108
:10359400416B134611F0450FF8D011F4006FF5D1CB
:1035A400436B13F0040F03D004238363184670475E
:1035B400C5238363002070474FF00040704700BF6D
:1035C40028000020D34D6210184B1B68184AA2FB38
:1035D40003235A0A41F2883303FB02F35A1EFBB158
:1035E400416B134611F0450FF8D011F4006FF5D17B
:1035F400436B13F0040F03D004238363184670470E
:10360400436B13F0010F07D1436B13F0400F0AD043
:103614004023836300207047012383631846704767
:103624004FF0004070470020704700BF2800002082
:10363400D34D621084B010B402AC84E80E00039A37
:103644000B461343049A1343059A1343069A1343F0
:10365400079A1343426822F4FD4222F07F02134387
:10366400436000205DF8044B04B07047D0F880003C
:10367400704708B5032303600220FCF7F3FF002022
:1036840008BD006800F0030070470B6883604B6856
:103694008A681343CA6813430A691343C26822F44D
:1036A4007F6222F00F021343C36000207047006959
:1036B400C0B27047143040587047000038B5524BC0
:1036C4001B68524CA4FB03435B0A02FB03F2531E28
:1036D400002A62D0446B1A4614F0450FF7D014F454
:1036E400006FF4D1436B13F0040F03D004238363FE
:1036F400184638BD436B13F0010F03D001238363D5
:10370400184638BD0D460446C5238363FFF7CFFF33
:10371400A84201D0012038BD00212046FFF7CAFF8E
:103724003B4B0340E3B300283CDB10F0804F3CD11B
:1037340010F0005F01D0802038BD10F0805F36D1DA
:1037440010F0006F36D110F0806F36D110F0807F0A
:1037540036D110F4000F36D110F4800F36D110F4A6
:10376400001F36D110F4801F36D110F4802F36D1CB
:1037740010F4003F36D110F4803F36D110F4004FDE
:1037840036D110F4804F36D110F4005F36D110F0EA
:10379400080F36D04FF4000038BD4FF0004038BD5C
:1037A400002038BD4FF0007038BD402038BD4FF4C4
:1037B400807038BD4FF4007038BD4FF4806038BD60
:1037C4004FF4006038BD4FF4805038BD4FF40050C2
:1037D40038BD4FF4804038BD4FF4004038BD4FF43D
:1037E400003038BD4FF4802038BD4FF4002038BD80
:1037F4004FF4801038BD4FF4001038BD4FF48000F2
:1038040038BD4FF4803038BD28000020D34D6210FD
:1038140008E0FFFD70B5264B1B68264CA4FB034350
:103824005C0A41F2883303FB04F35C1E002B39D09D
:10383400456B234615F0450FF7D015F4006FF4D10E
:10384400436B13F0040F03D004238363184670BD45
:10385400436B13F0010F03D001238363184670BD3B
:1038640016460D460446FFF722FFA84201D0012068
:1038740070BDC523A36300212046FFF71BFF10F48E
:10388400604F05D010F4804F06D04FF4005070BD47
:10389400000C3080002070BD10F4004F05D04FF4B0
:1038A400805070BD4FF0004070BD4FF4803070BD4B
:1038B40028000020D34D62100B6843624B6883627A
:1038C4008B68CA6813430A6913434A691343C26A7B
:1038D40022F0F7021343C3620020704730B587B06B
:1038E400054601911024029440230393002304937A
:1038F4004FF48063059301A9FFF7C7FE41F28832B4
:1039040021462846FFF7DAFE07B030BD30B587B050
:103914000546019207240294402303930023049351
:103924004FF48063059301A9FFF7AFFE41F288329B
:1039340021462846FFF7C2FE07B030BD10B586B059
:103944000446002301930293039304934FF480638A
:10395400059301A9FFF799FE2046FFF7C1FD06B0C4
:1039640010BD10B586B004464FF4D57301930823F7
:10397400029340230393002304934FF4806305933D
:1039840001A9FFF782FE2046FFF71EFE06B010BD18
:1039940030B587B005460191372402944023039340
:1039A400002304934FF48063059301A9FFF76DFE90
:1039B40041F2883221462846FFF780FE07B030BD29
:1039C40010B586B0044641F0004141F480110191E4
:1039D4002923029340230393002304934FF4806329
:1039E400059301A9FFF751FE2046FFF7C5FD06B078
:1039F40010BD30B587B005460191062402944023DA
:103A04000393002304934FF48063059301A9FFF704
:103A14003CFE41F2883221462846FFF74FFE07B0AC
:103A240030BD30B587B0054600230193332402949A
:103A34004022039204934FF48063059301A9FFF796
:103A440024FE41F2883221462846FFF737FE07B0AC
:103A540030BD10B586B004460023019302220292C1
:103A6400C022039204934FF48063059301A9FFF7E6
:103A74000CFE2046FFF750FD06B010BD10B586B011
:103A84000446019109230293C02303930023049362
:103A94004FF48063059301A9FFF7F7FD2046FFF774
:103AA4003BFD06B010BD70B586B005460E4600233A
:103AB4000193032402944022039204934FF48063FD
:103AC400059301A9FFF7E1FD324621462846FFF799
:103AD400A1FE06B070BD0000002301330C4A9342DE
:103AE40011D80269002AF8DA036943F0010303617B
:103AF40000230133064A934207D8026912F0010FEA
:103B0400F7D100207047032070470320704700BF9F
:103B1400400D030084B010B5044603A880E80E00ED
:103B2400089B012B0DD0E36843F04003E36020467B
:103B3400FFF7D2FF0C9B23BBA36B43F48033A36337
:103B440013E0A36B23F48033A363E36823F48403B7
:103B540023F04003E360E36823F44013E3600F9B26
:103B6400012B09D02046FFF7B7FF069B012B0DD090
:103B7400BDE8104004B07047E36843F48013E36089
:103B8400F0E7A36B23F48033A363EEE7A36843F069
:103B94000603A360A36843F02003A360E8E78368F7
:103BA40043F00103836000207047836823F001031E
:103BB40083600020704708B5C36823F0C043C36026
:103BC400012909D069B9C36843F08043C360322036
:103BD400FCF748FD002008BDC36843F00053C360F0
:103BE400F5E7012008BD0000890141F020010161D1
:103BF40000230133054A934205D8026912F0200FCD
:103C0400F7D1002070470320704700BF400D030028
:103C14001023036100230133054A934205D8026946
:103C240012F0100FF7D1002070470320704700BF37
:103C3400400D030070B49DF80C4064B903339E0832
:103C440007E000EB023303F5805351F8045B1D6079
:103C54000134B442F5D3002070BC7047033292089B
:103C6400002393420CD210B400F58054246841F828
:103C7400044B01339342F7D308465DF8044B704775
:103C8400084670474269806910407047406900F0F7
:103C94000100704710B400F58064D0F8003423F0BC
:103CA4000303C0F80034D0F8003401F003021343D6
:103CB400C0F80034012905D0022907D000205DF89E
:103CC400044B70474BF680336360F7E741F270733F
:103CD4006360F3E730B583B0044600250195D0F85E
:103CE40040340193019B23F02E030193019B43F481
:103CF4008073C0F840346420FCF7B4FC019B23F4C7
:103D04008073C4F840340A20FCF7ACFC284603B0A6
:103D140030BD82B000230193D0F840340193019B5D
:103D240023F02E030193019B13F4805F01D1012939
:103D34000CD0019B13F4805F05D021B9019B23F4BF
:103D44008053C0F84034002002B07047019B43F414
:103D54008053C0F84034ECE784B038B5044605A875
:103D640080E80E0025460023C4F8003EA36B23F42C
:103D74000013A363A36B23F40033A363E36B13F473
:103D8400807F10D0079B012B06D0D4F8003423F099
:103D94000403C4F800340CE0D4F8003443F0040302
:103DA400C4F8003405E0D4F8003423F00403C4F864
:103DB400003410212046FFF717FF2046FFF728FFA5
:103DC400002209E005EB42134FF0FF31C3F8081558
:103DD4000021C3F80C150132069B9A42F2D301214B
:103DE4002046FFF796FFC820FCF73CFC0023A361A4
:103DF4004FF0FF336361E36B13F4807F17D04FF40C
:103E04000073636203F18073A3620D4BC4F8003145
:103E1400089B1BB9A36943F01003A361A269094B72
:103E24001343A3610020BDE8384004B070478023E9
:103E3400636203F5C003A362034BC4F80031E7E7F0
:103E44000003E000080020A3E000400082B000234B
:103E54000193D0F8403401930198C0F3414002B07B
:103E6400704700F58060806880B27047F0B59DF8B7
:103E7400184000EB411505F5A0664FF0FF37B76019
:103E8400032C64D8DFE804F00255021840F29D4781
:103E9400F76012F0800F09D1C76B17F4807F58D0F8
:103EA400F76847F06007F76000260CE0F76847F40E
:103EB4008077F760002606E040F29D67F76012F015
:103EC400800F30D10026D0F8187401F00F014FF0A4
:103ED400010E0EFA01F13943C0F81814816941F05A
:103EE4000071816112F0800F35D100209DF814100B
:103EF400022933D000219B0503F0FE53D20202F4C1
:103F0400F0421343A20402F440221343BDF81C20E0
:103F1400C2F30A02134303430B43C5F80035032CD1
:103F24001FD03046F0BDF76847F48077F76000266D
:103F3400C9E740F22527F76012F0800F01D100266F
:103F4400C1E7F76847F4C077F7600026BBE70126AE
:103F5400B9E70026B7E74FF40040C7E74FF4003154
:103F6400C9E7D5F8003543F00053C5F80035D8E764
:103F740000F58060406980B2704710B400EB4111D5
:103F840001F5A064D1F80035C3F381433BB3022BA0
:103F940025D0D1F8003543F08043C1F80035D0F87E
:103FA400103413F47F0F49D1D1F8003523F00043C6
:103FB400C1F80035D1F8003543F00043C1F80035AD
:103FC400D1F8003523F40043C1F800350023013350
:103FD400B3F57A7F27D82268002AF8DB23E0D1F8EA
:103FE400003543F08043C1F80035C36A13F47F0FF2
:103FF4001DD1D1F8003523F00043C1F80035D1F8C4
:10400400003543F00043C1F80035D1F8003523F4FE
:104014000043C1F8003500230133B3F57A7F02D899
:104024002268002AF8DB00205DF8044B7047D1F8C1
:10403400003543F00043C1F80035F4E7D1F800350A
:1040440043F00043C1F80035EDE7000000EB4111F7
:10405400064AC1F81025D1F8003523F0804343F017
:104064000043C1F800350020704700BF00000880FD
:10407400F0B583B04B78C46B14F4807F07D00C790F
:104084002CB912B94C79012C11D0012A13D00C6926
:10409400E4B10D892C44013CB4FBF5F4A4B2B4F5AD
:1040A400807F14D92D020D614FF480740FE01946FE
:1040B400FFF7CCFF75E000EB4314D4F80C5525F062
:1040C4006005C4F80C5500244C71E0E70124CD7858
:1040D4001DB10D8905FB04F50D6100EB43130D695A
:1040E400C5F31205364F07EAC4442C438D7A6D0795
:1040F40005F0C0452C43C3F8104512B1CC68C3F891
:10410400144500F58066B46814F0010FD3F8004537
:1041140024F00054C3F80045D3F800450CBF4FF019
:10412400005500252C43C3F80045D3F80055254C11
:104134002560256825F080452560CC78C4B1214DE3
:104144002C6844F400442C601E4C256845F000455E
:1041540025602468C3F800451ABBCB780BBB0B69F8
:10416400FBB1CA79032A14D8DFE802F0081E081E3E
:10417400144D2C6824F400442C60E5E70333C26A30
:1041840092B2C3F38F03934203D9836943F02003AC
:104194008361CC684A780B8A002100912146FFF79D
:1041A40049FD002003B0F0BD0333326992B2C3F37A
:1041B4008F039342EDD9836943F080638361E8E719
:1041C4000000F81FAC00002070B505460446FFF758
:1041D400ECFC10212846FFF707FD2846FFF718FDE1
:1041E40000220AE004EB4211D1F8003523F08023C9
:1041F40043F08043C1F8003501320F2AF2D9002080
:10420400034600E001300F2813D804EB401606F5EE
:10421400A061D6F8002522F4004242F04042C6F8DC
:1042240000250133B3F57A7FECD80A68002AF8DB5D
:10423400E8E74FF0FF33C5F814346B612846FFF705
:10424400AEFC002070BD0020704708B52122027426
:10425400202242740022428282820722C28200F01B
:1042640003FF08BD08B5A122027421224274002272
:10427400428282820722C28200F0F6FE08BD38B56F
:104284000446D0F87C33D9694031FFF7EBFF05468B
:1042940008B1284638BDD4F8D433022120469847C3
:1042A400F7E738B50546D0F87C33DC69217879B96D
:1042B400217BB1B9617BF1B9D5F87C33D86928B1D8
:1042C40001F034FFD5F87C330022DA61002038BDD8
:1042D40001F019F82178284601F02DF80023237005
:1042E400E6E7284601F00FF8217B284601F023F881
:1042F40000232373DEE7284601F005F8617B284696
:1043040001F019F800236373D6E7F0B585B00646CB
:1043140001230222114600F03FFB012803D90225A4
:10432400284605B0F0BD04460146304600F02AFB9D
:10433400054608B10225F3E7D6F87C73502001F056
:10434400EDFEF861D6F87C33DF69002F00F0988029
:1043540050220021384601F0F1FE1A2303FB0463C6
:1043640093F84E3313F0800F21D17978304600F062
:10437400CFFF0146387096F81C337A78788902901A
:104384000320019096F81D030090304600F0ABFF27
:1043940000223978304601F0F1FD00231A460A2143
:1043A400304600F0F9FA012809D90225B8E77B70F4
:1043B4001A2303FB0464B4F850337B81D5E71A2332
:1043C40003FB006393F84E3313F0800F48D1BB73A3
:1043D4001A2303FB0063B3F850333B831A2303FB14
:1043E400006393F8563313F0800F41D1BB731A2343
:1043F40003FB0060B0F858333B83B97B304600F0D0
:1044040087FF7873F97B304600F082FF387396F8A3
:104414001C33BA7B797B388B02900224019496F882
:104424001D030090304600F05EFF96F81C33FA7BC3
:10443400397B788B0290019496F81D0300903046E6
:1044440000F051FF002487F84C402246797B304627
:1044540001F094FD2246397B304601F08FFD5FE781
:10446400FB731A2303FB0063B3F850337B83B5E774
:10447400FB731A2303FB0060B0F858337B83BCE75B
:1044840002254DE7704730B583B00546D0F87C333C
:10449400DC6994F84D30012B03D0022B19D003B002
:1044A40030BD606A228B90420AD9637BE1690120A6
:1044B4000090284600F0DEFE022384F84D30EEE73B
:1044C400637BE1690122009282B2284600F0D2FEA9
:1044D400F2E7617B01F03EFD012805D00228DED120
:1044E400012384F84D30DAE7636A228B93420AD9B8
:1044F4009B1A6362E3691A44E261636A33B101237C
:1045040084F84D30CBE700236362F6E7002384F898
:104514004D302846FFF7B6FFC1E7704738B505466A
:10452400D0F87C33DC6994F84E30032B02D0042B92
:1045340009D038BD237B628B216A00F0B1FE0423CD
:1045440084F84E3038BD217B01F004FD012800D0F1
:1045540038BD217B284601F0F7FCA36A984202D0BB
:10456400628B904206D8002384F84E302846FFF729
:10457400D4FFEDE71B1AA362236A184420620323C5
:1045840084F84E3038BD704738B50546D0F87C33D2
:10459400DC6994F84C30042B04D8DFE803F04C05B4
:1045A400163C4300012347E0A16CFFF74EFE03468F
:1045B40030B1012840D0042384F84C3001233BE07F
:1045C400022384F84C30012336E004F14001FFF764
:1045D40049FE0346C0B9002384F84C30636C23F0D1
:1045E4007F42A16C4B6823F07F439A4201D00123A0
:1045F40022E0226C0B689A4201D001231CE0284679
:10460400FFF7C1FF012317E0012815D0042384F824
:104614004C30012310E0FFF736FF2846FFF77EFFFA
:10462400012309E0002100F0DCFD38B9002384F8FF
:104634004C30012300E00023184638BD0123FBE77A
:10464400002306E003F1E00200EB82020021516046
:1046540001330E2BF6D9002304E0C218002182F89E
:104664001C110133B3F5007FF7D3002303704370AB
:1046740001228270C0F8C4330276402181714376EE
:1046840080F81C3380F81D2380F81F3380F81E3314
:104694001846704708B50378DBB20B2B00D008BD71
:1046A400D0F87C33002BFAD09B699847F7E770B5B4
:1046B40084B004464378072B00F23081DFE813F01E
:1046C400080048006D009E00C300E90004011D01BC
:1046D400082100F009FD18B1032821D00125DEE0EE
:1046E40094F82D23A2710125657094F81C33217967
:1046F40002920026019694F81D23009280222046FF
:1047040000F0F1FD94F81C336179A27902920196CC
:1047140094F81D2300923246204600F0E4FDBEE0EA
:1047240094F81E330133DBB284F81E33032B03D910
:104734000D2323700125B2E06179204600F0FBFDD2
:104744002179204600F0F7FD002323700125A6E01F
:10475400122100F0C9FC18B1032805D001259EE000
:104764000223637001259AE094F81E330133DBB20F
:1047740084F81E33032B03D90D23237001258EE007
:104784006179204600F0D7FD2179204600F0D3FD61
:10479400002363702370012581E0012100F0EEFC09
:1047A40018B1032824D0012579E0022001F0FFFB91
:1047B400012584F81C53032363702179A3790293A0
:1047C4000026019694F81D3300932B468022204640
:1047D40000F089FD94F81C336179A2790292019664
:1047E40094F81D2300923246204600F07CFD56E0EA
:1047F4000D23237000236370012550E0092100F08C
:104804008CFC18B1032805D0012548E0042363700B
:10481400012544E094F81E330133DBB284F81E33DF
:10482400032B03D90D232370012538E06179204639
:1048340000F081FD2179204600F07DFD00236370A6
:10484400237001252BE0B0F83A1300F066FC18B190
:10485400032805D0012522E00523637001251EE00D
:1048640094F81E330133DBB284F81E33032B03D9CF
:104874000D232370012512E06179204600F05BFDD1
:104884002179204600F057FD002363702370012531
:1048940005E090F8341329B906234370012528460E
:1048A40004B070BDFF2300F58E7200F04FFC18B108
:1048B400032805D00125F2E7062363700125EEE7FE
:1048C400062363700125EAE790F8351319B9072325
:1048D40043700125E3E7FF2300F58E7200F036FCF8
:1048E40018B1032805D00125D9E7072363700125F2
:1048F400D5E7072363700125D1E790F8361309B98A
:104904000025CCE7FF2300F58E7200F01FFC05465E
:104914000028C4D0032803D00125C0E70125BEE741
:104924000025BCE7D8B170B504460E4680F8CC2308
:104934000025C0F87C53C0F88053FFF781FE84F84B
:10494400235384F8205384F8215384F822530EB15E
:10495400C4F8D463204601F0BFFA002070BD0220E1
:1049640070470A4661B1D0F880330BB1022070471A
:10497400591CC0F88013DE3340F823200020704710
:104984000220704790F83C338B4201D802207047D4
:1049940080F824130020704770B4064600200AE013
:1049A4001A2404FB056494F84843944210D0FF2A67
:1049B4000ED0441CE0B2012814D805461A2404FB86
:1049C400006494F847438C42EAD0FF29F1D1E7E729
:1049D4001A2404FB056595F849439C4203D0FF2B38
:1049E400E7D100E0FF2070BC704710B5044601F029
:1049F400EBFA0121204601F0B3FA002010BD30B5D6
:104A040087B0044602238DF8173090F82133DBB2C7
:104A1400012B11D02378DBB20B2B7BD8DFE813F00A
:104A24000F002100450009017A007D00E700920093
:104A34009C00A600B700000103230370EAE794F882
:104A44002033002B66D001232370C82001F0AFFA75
:104A5400204601F0C9FA002384F81C33C4F8C83393
:104A640058E094F82333012B0FD0D4F8C833B3F5AE
:104A74007A7F13D994F81F330133DBB284F81F33E0
:104A8400032B08D90D23237044E0002384F81F333B
:104A9400022323703EE0002323703BE00A33C4F872
:104AA400C8330A2001F083FA34E0D4F8D43313B1C4
:104AB400042120469847642001F079FA204601F049
:104AC40035FA84F81D03052323700021204600F0E5
:104AD4001FFC60718021204600F01AFC0146207101
:104AE40094F81C33A27902920025019594F81D23B1
:104AF40000928022204600F0F6FB94F81C33617982
:104B0400A2790292019594F81D2300922A46204628
:104B140000F0E9FB002007B030BD2046FFF7C7FDD9
:104B24008DF817009DF81730002BF3D184F8243347
:104B340094F83733012B02D007232370EAE70823C4
:104B44002370E7E7D4F8D433002BE3D001212046C7
:104B5400984708232370DDE794F83D13204600F0BE
:104B64001EFB0028D6D109232370D3E794F83F33E2
:104B740013F0200F02D10A232370CBE70121204632
:104B840000F01EFB0028C5D10A232370C2E7D4F825
:104B94008033002BBED00023C4F87C334BB1D4F84F
:104BA4007C330BB39B6820469847A8B10D23237030
:104BB400B0E7184603F1DE0254F82220117994F884
:104BC4004723914202D00133DBB2E7E7DE3054F8E9
:104BD4002030C4F87C33E2E706232370D4F8D433BE
:104BE40003212046984795E70D23237092E7D4F8D4
:104BF4007C3393B11B69204698478DF817009DF8C4
:104C040017303BB19DF81730DBB2022B82D10D2354
:104C140023707FE70B2323707CE70D23237079E750
:104C2400D4F87C33002B3FF475AF5B69204698477A
:104C340070E7002384F821332046FFF701FDD4F800
:104C44007C332BB1DB68204698470023C4F87C33BF
:104C5400D4F8D43313B105212046984794F822336D
:104C6400DBB2012B03D0204601F0AEF952E700235A
:104C740084F822332046FFF7B8FE4BE7C0F8C4138C
:104C8400704708B5D0F8C4330133C0F8C433FFF714
:104C940001FD08BD012380F823337047002380F809
:104CA40023337047012380F82033002380F8213315
:104CB40080F822331846704738B50446012380F83B
:104CC4002133002580F8205380F8235301F084F920
:104CD4002179204600F02FFB6179204600F02BFB60
:104CE400284638BD10B40B7803704B7843708B782A
:104CF400CC7843EA042343800B7903714B794371E5
:104D04008B798371CB79C371082A16D90B7A4A7AC5
:104D140043EA022303818B7ACA7A43EA022343815A
:104D24000B7B4A7B43EA022383818B7B8373CB7B9C
:104D3400C3730B7C03744B7C43745DF8044B704762
:104D44000B7803704B7843708B788370CB78C37087
:104D54000B7903714B7943718B798371CB79C3716F
:104D64000B7A037270470B7803704B7843708B781F
:104D74008370CB78C3700B794A7943EA022383802A
:104D84008B79837170474378032B00D0704710B43C
:104D94000478023CA24228BF224694B2002305E0D4
:104DA400C218927801F8012B02339BB2A342F7D3C5
:104DB40000230B705DF8044BE8E730B583B004467C
:104DC400037E013B0A2B00F2E180DFE803F00610CA
:104DD40037435664808C9FADC400427900F11001C2
:104DE40000F011FA02232376012003B030BD41798B
:104DF40001F0B0F8012805D004281BD0022819D0EE
:104E04000120F2E7227CE38A4BB112F0800F03D138
:104E1400052323760120E8E703232376E5E712F050
:104E2400800F03D1072323760120DEE709232376AD
:104E34000120DAE70B2323760120D6E7D0F8C43328
:104E4400C38103798289816800F004FA04232376FC
:104E54000120CAE7017901F07DF8012806D0052870
:104E640000F09680042804D00120BEE709232376AD
:104E7400F5E70B2323760120B7E7437982890125DF
:104E84000095816800F0D0F9D4F8C433E381062397
:104E940023762846A9E7417901F05CF8012807D078
:104EA400052808D002280AD004280CD001209CE749
:104EB4000723237699E70C232376032095E705231C
:104EC4002376012091E70B23237602208DE70379D3
:104ED4000022114600F0BEF9D4F8C433E38108235C
:104EE4002376012081E7017901F034F8012805D007
:104EF400042807D005284DD0012076E70D2323761A
:104F0400002072E70B23237601206EE74379012505
:104F140000950022114600F087F9D4F8C433E381E8
:104F24000A232376284660E7417901F013F8012823
:104F340005D0022807D0042809D0012055E70D2305
:104F44002376002051E70923237601204DE70B2324
:104F54002376012049E7437E0133DBB24376022BFB
:104F640003D801202076A0703FE7D0F8D43306217F
:104F74009847002565766179204600F0DCF92179AF
:104F8400204600F0D8F9257002202EE701202CE7F6
:104F940003202AE7032028E703780A8813440B80B8
:104FA4000378184470472DE9F04182B00B78037000
:104FB4004B7843708B78CC7843EA042343800B7995
:104FC40003714B7943718B798371CB79C3710B7AFC
:104FD4000372092A45D905460923ADF806300C4663
:104FE4000026012E3DD86A88BDF806309A4238D989
:104FF4000DF106012046FFF7CFFF04464378042B4A
:10500400EFD1B0461A2000FB06F0083028442146B0
:105014000230FFF795FE00271A2303FB08539B7BFE
:105024009F421BD26A88BDF806309A4216D90DF108
:1050340006012046FFF7B0FF04464378052BEBD169
:1050440001371A2000FB08F000EBC70008302844A1
:1050540021460430FFF787FEFFB2DDE70136F6B2E2
:10506400BFE702B0BDE8F0818378012B03D0022BA7
:1050740009D0012305E081608281012303760222A5
:1050840082701846704710B50446FFF796FE034633
:1050940030B1032804D0022806D10122A27003E013
:1050A4000122A27000222276184610BD38B5BDF840
:1050B40010508478012C04D02A461946FFF7D4FFF7
:1050C40038BD61F07F04047406214174428202F405
:1050D4007F44B4F5407F03D000228282C582EBE78F
:1050E40040F209428282F9E7F0B583B0044600F544
:1050F4008E750E4600912B464FF480720021FFF707
:10510400D5FF074610B1384603B0F0BD32462946F4
:1051140004F22630FFF7E6FDF5E7F0B583B0044668
:105124000E4600F11C0500912B464FF4007200213D
:10513400FFF7BCFF074610B1384603B0F0BD324656
:10514400294604F54E70FFF72EFFF5E7F0B583B05E
:1051540017461D4600F58E740093234641F44072B1
:105164000021FFF7A3FF064610B1304603B0F0BD9F
:105174002A4639462046FFF706FEF6E708B5837847
:10518400012B04D000221146FFF76EFF08BD002357
:1051940003740522427441828382C382F2E708B514
:1051A4008378012B04D000221146FFF75DFF08BD70
:1051B400002303740922427441828382C382F2E78A
:1051C40008B58378012B04D000221146FFF74CFF69
:1051D40008BD002303740322427441828382C38284
:1051E400F2E708B58378012B04D000221146FFF7BB
:1051F4003BFF08BD0223037401234374002343824D
:105204008182C382F1E730B585B01546002403944A
:10521400082302930191009423462246294600F074
:1052240006FF204605B030BD30B585B00C461946A2
:105234009DF8203090F81D5305B10023039302928A
:1052440001940123009300231A4600F0F0FE00208D
:1052540005B030BD30B585B01D46002403940292DC
:105264000191012200922346294600F0E0FE2046E7
:1052740005B030BD30B585B00C4619469DF82030D8
:1052840090F81D5305B10023039302920194012366
:1052940000930223002200F0CAFE002005B030BDB6
:1052A40030B585B01D460024039402920191012279
:1052B40000920223294600F0BAFE204605B030BD14
:1052C40000230A2B0CD803F1E00200EB820252689F
:1052D40012F4004F02D00133DBB2F2E798B2704708
:1052E4004FF6FF70704710B584B0BDF820400294AB
:1052F4009DF81C4001949DF81840009400F07CFE39
:10530400002004B010BD08B500F089FE002008BDDF
:1053140038B504460D46FFF7D3FF4FF6FF739842A6
:1053240007D000F00F0345F40045E03304EB83039A
:105334005D60C0B238BD0A2906D8E03100EB8101B6
:105344004B68C3F30E034B60002070472DE9F04F08
:105354008FB0002409940A940B940C940D94019436
:10536400804B1A6B42F010021A631A6B02F010029F
:105374000192019A02941A6B42F004021A631A6BA6
:1053840002F004020292029A03941A6B42F0200281
:105394001A631A6B02F020020392039A04941A6BA4
:1053A40042F080021A631A6B02F080020492049A9B
:1053B40005941A6B42F001021A631A6B02F001029F
:1053C4000592059A06941A6B42F002021A631A6B4C
:1053D40002F002020692069A07941A6B42F0400207
:1053E4001A631A6B02F040020792079A08941A6B28
:1053F40042F008021A631B6B03F008030893089B2E
:10540400DFF8788122460F214046FBF791FADFF856
:10541400709122464FF4C1514846FBF789FA22465F
:105424004FF400615048FBF783FA504F01224FF4C8
:1054340080713846FBF77CFA0F2309934FF0110A69
:10544400CDF828A00B940C9409A94046FBF786F9E3
:105454001023099302250A950B940C9408260D96A3
:1054640009A94046FBF77AF94FF4C15309934FF069
:105474000108CDF828800B940C9409A94846FBF741
:105484006DF9042309930A950B940C940D9609A9BC
:105494003748FBF763F9CDF82480DFF8E8B0CDF89E
:1054A40028B00B9409A93348FBF758F909950A95D4
:1054B4000B940C940D9609A92F48FBF74FF94FF460
:1054C400404309930A940B9409A94846FBF746F90B
:1054D400932309930A940B9409A93846FBF73EF9E0
:1054E4004FF40069CDF824900A950B940C9405238D
:1054F4000D9309A92048FBF731F9CDF82490CDF894
:1055040028800B940C9409A91748FBF727F9242346
:105514000993CDF828B00B940DEB03013846FBF743
:105524001DF94FF48078CDF82480CDF828A00B9491
:105534000C9409A93846FBF711F9CDF824800A9593
:105544000B940C940D9409A90A48FBF707F90996E2
:105554000A940B9409A90448FBF700F90FB0BDE8BD
:10556400F08F00BF00380240000C024000180240D7
:105574000008024000000240000402400010024003
:10558400001402400000111010B588B000220792E8
:1055940013484FF02043036003F582734360826035
:1055A400C2600261102141618261C26142624FF4B2
:1055B40080538362C262026342638263C263026491
:1055C40042640F2301930293FF24039404930591EF
:1055D4001123069301A9FDF70DFD08B010BD00BF0E
:1055E4007801002008B50948094B0360094B436062
:1055F40000238360C3604FF480420261436183618E
:10560400C3610362FBF792FF08BD00BFD000002016
:1056140000540040A086010008B50948094B036006
:10562400094B436000238360C3604FF480420261EE
:1056340043618361C3610362FBF778FF08BD00BF68
:105644002401002000580040A086010008B50A4843
:105654000A4B03604FF40072426000238360C3600E
:1056640002614FF4FA4242618361C3610123036220
:10567400FCF736F808BD00BF8C020020003C004057
:1056840008B50848084B0360FF2343600122826089
:105694000023C360026143618361C3610362FCF759
:1056A4005DFB08BDD4020020001000A010B5094C19
:1056B400094B236000236360A360E360236163619B
:1056C400A3612046FDF724FC4FF400612046FDF75A
:1056D4003FFC10BDC8010020002C014008B508485B
:1056E400084B03604FF4E133436000238360C360DD
:1056F40003610C2242618361C361FDF7C1FD08BDF2
:105704004C0200200044004070B5A4B034220021B3
:1057140017A800F013FD0024129413941494159404
:1057240016943C22214603A800F008FD0194274B5F
:105734001A6C42F080521A641B6C03F0805301937C
:10574400019B0294224B1A6842F440421A601B687F
:1057540003F440430293029B032317934FF4A022C4
:10576400189201221A9210221B9202251D954FF4C1
:1057740080021E9204261F9648222092219522938D
:10578400239517A8FCF724FF0F2312931395149461
:105794004FF4805315931694294612A8FCF7F0FB96
:1057A40061230393322305930496079506950D947C
:1057B4000B941094089403A8FCF7B8FC22462146E5
:1057C4002046FCF725FB24B070BD00BF0038024022
:1057D4000070004008B5FAF719FFFFF795FFFFF7CF
:1057E400B5FDFFF7D1FEFFF7FDFEFFF715FFFFF74D
:1057F4002DFFFFF745FFFFF759FFFFF76FFF00F09D
:10580400E1FA0320FAF79AFE0220FAF797FE012044
:10581400FAF794FE0020FAF791FE0020FAF7B8FE9A
:1058240000F0F0FA0320FAF7C1FE4FF47A73112264
:1058340004490548FDF753FD4FF4C870FAF712FF09
:10584400EEE700BF3C6300084C02002070470000F4
:10585400F0B587B000230193029303930493059357
:10586400194B1B680BB107B0F0BD0121164B196031
:1058740000260096154B9A6B0A439A639B6B0B4068
:105884000093009B019102270297032504950C24A1
:10589400059401A90E48FAF761FF4FF6807301934E
:1058A400029703960495059401A90A48FAF756FF4E
:1058B4004CF2B3730193029703960495059401A9DE
:1058C4000548FAF74BFFCEE7B0000020003802404D
:1058D4000014024000100240000C024082B000217B
:1058E40000910B4B5A6C42F480425A645A6C02F495
:1058F40080420092009A01911A6C42F080521A641C
:105904001B6C03F080530193019B02B0704700BFEE
:10591400003802402DE9F0438BB000230593069331
:105924000793089309930368334A934205D0334A93
:10593400934227D00BB0BDE8F08300250195304C8D
:10594400236B43F002032363236B03F002030193ED
:10595400019BC0230593122306930123079303237A
:1059640008930423099305A92648FAF7F7FE02953C
:10597400236C43F400132364236C03F40013029395
:10598400029BD7E7002503951D4C236B43F00203CC
:105994002363236B03F002030393039B4FF480639D
:1059A40005934FF01209CDF818904FF00108CDF887
:1059B4001C800327089704230993124E05A9304637
:1059C400FAF7CCFE4FF400730593CDF81890CDF898
:1059D4001C8008970923099305A93046FAF7BEFEEF
:1059E4000495236C43F480032364236C03F4800341
:1059F4000493049B9EE700BF0054004000580040FD
:105A04000038024000040240F0B58BB00023059337
:105A1400069307930893099302682E4B9A4201D088
:105A24000BB0F0BD0024019403F5FE331A6C42F46C
:105A340000421A641A6C02F400420192019A029420
:105A44001A6B42F001021A631A6B02F0010202920D
:105A5400029A03941A6B42F002021A631A6B02F060
:105A640002020392039A04941A6B42F004021A632A
:105A74001B6B03F004030493049B1023059302257A
:105A840006950626099605A91348FAF767FE41F21A
:105A940010030593069507940894072309930F4F61
:105AA40005A93846FAF75AFE80230593069507940C
:105AB4000894099605A90A48FAF750FE202305938D
:105AC400069507940894099605A93846FAF746FE00
